:100000000C94FA000C941F010C941F010C941F0116
:100010000C941F010C941F010C941F010C941F01E0
:100020000C941F010C941F010C941F010C941F01D0
:100030000C941F010C941F010C941F010C941F01C0
:100040000C941F010C941F010C941F010C941F01B0
:100050000C941F010C941F010C941F010C941F01A0
:100060000C941F010C94AA040C9457040C941F01C7
:100070000C941F010C941F010C941F010C941F0180
:100080000C941F010C941F010C941F010C941F0170
:100090000C941F010C941F010C941F010C941F0160
:1000A0000C941F010C941F010C941F010C941F0150
:1000B0000C941F010C941F010C941F010C941F0140
:1000C0000C941F010C941F010C941F010C941F0130
:1000D0000C941F010C941F010C941F010C941F0120
:1000E0000C941F010C941F010C941F010C941F0110
:1000F0000C941F010C9456050C9403050C941F01DD
:100100000C941F010C941F010C941F010C941F01EF
:100110000C941F010C941F010C941F010C941F01DF
:100120000C941F010C941F010C941F010C941F01CF
:100130000C941F010C941F010C941F010C941F01BF
:100140000C941F010C941F010C941F010C941F01AF
:100150000C941F010C941F010C941F010C941F019F
:100160000C941F010C941F010C941F010C941F018F
:100170000C941F010C941F010C941F010C941F017F
:100180000C941F010C941F010C941F010C941F016F
:100190000C941F010C941F010C941F010C941F015F
:1001A0000C9418020C941F010C941F010C941F0155
:1001B0000C941F010C941F010C941F010C941F013F
:1001C0000C941F010C941F010C9429030C941F0123
:1001D0000C941F010C941F010C941F010C941F011F
:1001E0000C941F010C941F010C941F010C941F010F
:1001F0000C941F0111241FBECFEFDFE3DEBFCDBF84
:1002000000E00CBF18BE19BE1ABE1BBE10E2A0E073
:10021000B0E2E0E9F1E100E00BBF02C007900D920F
:10022000A232B107D9F710E2A2E2B0E201C01D92FA
:10023000AB3CB107E1F70E9464020C94C6080C9431
:1002400000001F93182F8A3019F48DE00E942101BD
:1002500080E0612F0E9484038823D1F381E0612F25
:100260000E9484038823D1F381E090E01F910895D8
:10027000EF92FF92CF93DF9380E00E94E603EC01C0
:100280002FEF8F3F920741F481E00E94E603EC01DB
:100290003FEF8F3F930781F3CD30D10511F4CAE0D2
:1002A000D0E080911820882329F08C2F60E070E046
:1002B0000E9421019E018C2F932FDF91CF91FF90FF
:1002C000EF900895E0EEF7E082E081838583E0E43B
:1002D000F8E085E080838FEF9FEF86A397A381E20C
:1002E00091E080932A2090932B2088E391E08093E3
:1002F0002C2090932D2083E08093252010922E2097
:1003000010922F2082E290E28093C5209093C62025
:100310008093C7209093C820089582E0E0EEF7E034
:10032000868308950895E0E4F8E010A211A20895EC
:10033000E0E4F8E020A131A1220F331F822F932F98
:100340000895DF93CF93CDB7DEB7C054D040CDBF73
:10035000DEBFFE01EA5BFF4F41915191CE01019654
:1003600060E470E02E2F3F2F0E94E105282F392FE7
:10037000C9018D33910510F08CE390E0BE016F5FF1
:100380007F4FFB01E80FF91F2DE020830196FB0151
:10039000E80FF91F2AE020838C0F9D1FFC011282B9
:1003A00080E00E94BE03C05CDF4FCDBFDEBFCF91B7
:1003B000DF9108958093182008950F931F93CF9392
:1003C000DF93EC010E9425030E94D50200E010E2B9
:1003D00000D00F92ADB7BEB711960D931C93129734
:1003E0001396CD93DC9314970E94C1058FE39DE093
:1003F000A3E081509040A040E1F700C000000F90C2
:100400000F900F900F90E4CFE0EAF6E081818F70BB
:10041000818383E081878AE1878B80E882870895E2
:100420008091302008950E9407030E948D01089555
:100430001F920F920FB60F9208B60F9209B60F9245
:100440000BB60F92112418BE19BE1BBE2F933F93FB
:100450004F935F936F937F938F939F93AF93BF93CC
:10046000EF93FF9381E080933020E0EAF6E0848709
:100470000E941302FF91EF91BF91AF919F918F91D5
:100480007F916F915F914F913F912F910F900BBE94
:100490000F9009BE0F9008BE0F900FBE0F901F90D7
:1004A0001895E0EAF0E084E08283828182608283B2
:1004B000828181608283789408950E9404020E9460
:1004C00062010E94B80208950E9451020E945D02DA
:1004D0008FE39DE0A3E081509040A040E1F700C091
:1004E0000000FFCFE82FF0E0E75EFF4D2081322FC4
:1004F000330F81E090E002C0880F991F3A95E2F730
:10050000982F990F6115710579F4892BA0E2B7E056
:1005100016968C931697E22FF0E0EE0FFF1FE85C23
:10052000F44F108211820895161617066CF4E0E25B
:10053000F7E096838583E22FF0E0EE0FFF1FE85C83
:10054000F44F608371830895A0E2B7E016968C9310
:10055000169715969C931597E22FF0E0EE0FFF1F6C
:10056000E85CF44F709561957F4F608371830895C7
:100570008FEFE0E2F7E081838FE0E0EAF6E081834D
:10058000E0E0FBE081E0808383EF81838FEF93E005
:1005900086A397A381E060E072E00E94720280E08F
:1005A00060E072E00E9472020895E0E0FBE010AEAD
:1005B00011AE10923A0B10923B0B10923C0B109222
:1005C0003D0B10923E0B10923F0B0895E82FF0E088
:1005D000E75EFF4D808190E0880F991FFC01E85D88
:1005E000F44F20813181E0E2F7E0608541E050E0A6
:1005F000FA0102C0EE0FFF1F8A95E2F7CF018623B2
:1006000019F4309521953F4F822F932F08950E9422
:10061000D502089580E064EF71E00E94720281E0EB
:1006200064EF71E00E947202089581E0E0E4FBE073
:1006300086830895E0E4FBE084E0808380E29EE42A
:1006400086A397A30E9415030895E0E4FBE01682B9
:1006500008951F920F920FB60F9208B60F9209B627
:100660000F920BB60F92112418BE19BE1BBE2F930A
:100670003F934F935F936F937F938F939F93AF932A
:10068000BF93EF93FF930E941002882319F00E94FA
:10069000070302C00E940A03FF91EF91BF91AF913F
:1006A0009F918F917F916F915F914F913F912F918A
:1006B0000F900BBE0F9009BE0F9008BE0F900FBE9B
:1006C0000F901F901895E0E4F6E088E08583818321
:1006D000E0EAF8E090E193838CE1848383E0858312
:1006E0002EE6268328EA2783E0E8F6E020E8258343
:1006F0002183E0EBFAE0938398E19483858385E09E
:1007000086838DEC87830895CF93DF9390E0FC017F
:10071000EE0FFF1FE35EFF4D0190F081E02D2AE414
:1007200030E0829FD001839FB00D929FB00D1124C5
:10073000AF58BF4D2C912034E8F423812C7F2383C4
:100740004AE450E0849F9001859F300D949F300DC6
:100750001124D901AF58BF4D8C91280F311DE901EB
:10076000CF5CDF4D68838F5F8C938381816083834F
:1007700081E001C080E0DF91CF910895EF92FF9278
:100780000F931F93CF93DF93F82EFB0160816623B5
:1007900089F08F010F5F1F4FC0E0D0E08F2D0E94C6
:1007A0008403882349F02196F80161918F01662323
:1007B000A9F702C0C0E0D0E07E018C2F9F2DDF9111
:1007C000CF911F910F91FF90EF9008951F93CF93BA
:1007D000DF9390E0FC01EE0FFF1FE35EFF4DC08151
:1007E000D1812AE430E0829FF001839FF00D929F37
:1007F000F00D1124E658FF4D2081222341F12B8179
:100800002F7C2B834AE450E0849F9001859F300D1C
:10081000949F300D1124F901EF5CFF4DDF01AF5BB8
:10082000BF4F1C91E75BFF4F8081815080834081E7
:10083000C9018E589F4DBC016F5F7F4F50E00E94F1
:10084000AF058B8180638B83212F30E002C02FEFB7
:100850003FEF822F932FDF91CF911F91089590E06A
:100860002AE430E0829FF001839FF00D929FF00D0B
:100870001124E658FF4D20812830C0F44AE450E0AE
:10088000849F9001859F300D949F300D1124C901E4
:100890008F5C9F4DFC01E75BFF4F2081820F911D14
:1008A000DC01AF5BBF4F6C932F5F208308951F92D5
:1008B0000F920FB60F9208B60F9209B60F920BB6B1
:1008C0000F92112418BE19BE1BBE2F933F934F9356
:1008D0005F936F937F938F939F93AF93BF93EF93A8
:1008E000FF9380917120882321F1809131208093A2
:1008F000A008809171208150809371208091712097
:100900008823F1F4FF91EF91BF91AF919F918F9167
:100910007F916F915F914F913F912F910F900BBEFF
:100920000F9009BE0F9008BE0F900FBE0F901F9042
:1009300018958091A3088C7FE0EAF8E08383E2CFEA
:100940004091712081E390E262E370E250E00E9406
:10095000AF05D8CF1F920F920FB60F9208B60F9225
:1009600009B60F920BB60F92112418BE19BE1BBE0A
:100970001F932F933F934F935F936F937F938F9327
:100980009F93AF93BF93EF93FF931091A0081B31F8
:1009900051F1113241F1103631F180917A208830D5
:1009A00050F480917A20E82FF0E0EE58FF4D10834C
:1009B0008F5F80937A20FF91EF91BF91AF919F91CC
:1009C0008F917F916F915F914F913F912F911F91E7
:1009D0000F900BBE0F9009BE0F9008BE0F900FBE78
:1009E0000F901F901895F8940E94D50287EA91E61F
:1009F0000197F1F700C0000088ED84BF81E0E8E7CF
:100A0000F0E08183CACF1F920F920FB60F9208B603
:100A10000F9209B60F920BB60F92112418BE19BE91
:100A20001BBE2F933F934F935F936F937F938F934F
:100A30009F93AF93BF93EF93FF938091BB20882345
:100A400021F180917B208093B00A8091BB2081505E
:100A50008093BB208091BB208823F1F4FF91EF911C
:100A6000BF91AF919F918F917F916F915F914F91C6
:100A70003F912F910F900BBE0F9009BE0F9008BEB3
:100A80000F900FBE0F901F9018958091B30A8C7F26
:100A9000E0EBFAE08383E2CF4091BB208BE790E26A
:100AA0006CE770E250E00E94AF05D8CF1F920F9222
:100AB0000FB60F9208B60F9209B60F920BB60F92AF
:100AC000112418BE19BE1BBE1F932F933F934F9343
:100AD0005F936F937F938F939F93AF93BF93EF93A6
:100AE000FF931091B00A1B3151F1113241F11036D0
:100AF00031F18091C420883050F48091C420E82FD7
:100B0000F0E0E454FF4D10838F5F8093C420FF9189
:100B1000EF91BF91AF919F918F917F916F915F9175
:100B20004F913F912F911F910F900BBE0F9009BED7
:100B30000F9008BE0F900FBE0F901F901895F8945D
:100B40000E94D50287EA91E60197F1F700C0000004
:100B500088ED84BF81E0E8E7F0E08183CACF6817C1
:100B6000790768F4FB01DC01E40FF51FA40FB51F42
:100B700002C002900E9241505040D8F708950C9454
:100B80002808DF93CF93CDB7DEB7FE01369661918B
:100B900071918091C7209091C820DC0113962C910F
:100BA0001397286013962C93AF010E941306E091CF
:100BB000C720F091C8202381277F2383CF91DF9125
:100BC00008950F931F93DF93CF93CDB7DEB72E9782
:100BD000CDBFDEBF8C01CB01BA0146E04C83098357
:100BE0001A8397FF02C080E090E801978D839E836F
:100BF000CE010196A9010E9413064D815E8157FD29
:100C00000AC02F813885421753070CF49A01020F4E
:100C1000131FF80110822E96CDBFDEBFCF91DF915A
:100C20001F910F9108952F923F924F925F926F9272
:100C30007F928F929F92AF92BF92CF92DF92EF926C
:100C4000FF920F931F93DF93CF93CDB7DEB72C970F
:100C5000CDBFDEBF6C011B018A01FC011682178229
:100C6000838181FFD1C12E010894411C511CF601E2
:100C70009381F10193FD859193FF81911F01882359
:100C800009F4BEC1853239F493FD859193FF8191BA
:100C90001F01853229F490E0B6010E943C08E7CF9D
:100CA000EE24FF2420E02032B0F48B3269F08C3245
:100CB00028F4803251F0833271F40BC08D3239F058
:100CC000803349F421602CC02260246029C0286050
:100CD00027C0206125C027FD2CC0382F30533A3063
:100CE00098F426FF08C08E2D880FE82EEE0CEE0C2F
:100CF000E80EE30E15C08F2D880FF82EFF0CFF0CA9
:100D0000F80EF30E20620CC08E3221F426FD78C15D
:100D1000206406C08C3611F4206802C0883649F47D
:100D2000F10193FD859193FF81911F01882309F0C3
:100D3000BACF982F9554933018F09052933028F4EE
:100D40000C5F1F4FFFE3F9830DC0833631F083370B
:100D500071F0833509F060C022C0F8018081898379
:100D60000E5F1F4F420171E0A72EB12C16C062E04A
:100D7000662E712C600E711EF8018080918026FF16
:100D800003C06E2D70E002C06FEF7FEFC4012C87AF
:100D90000E9431085C0183012C852F7717C052E037
:100DA000652E712C600E711EF8018080918026FFE7
:100DB00003C06E2D70E002C06FEF7FEFC4012C877F
:100DC0000E941D085C012C852068830123FD20C042
:100DD00008C080E290E0B6012C870E943C08FA949B
:100DE0002C858F2D90E0A816B90698F311C0F40158
:100DF00027FD859127FF81914F0190E0B6012C8757
:100E00000E943C082C85F110FA940894A108B108BE
:100E1000A114B10461F7F1C0843611F0893649F5A7
:100E200027FF08C0F80160817181828193810C5F86
:100E30001F4F09C0F80160817181882777FD809577
:100E4000982F0E5F1F4F4FE6B42EB22297FF09C0B6
:100E500090958095709561957F4F8F4F9F4FF0E8EB
:100E6000BF2AA2012AE030E00E946808782E741898
:100E700045C0853731F43FEEB32EB2222AE030E090
:100E800025C099EFB92EB2228F36C1F0803720F4F9
:100E9000883509F0B5C00DC0803721F0883709F0DA
:100EA000AFC002C020E1B22AB4FE0BC084E0B82A71
:100EB00008C0B4FE09C0E6E0BE2A06C028E030E063
:100EC00005C020E130E002C020E132E0B7FE08C0FA
:100ED000F80160817181828193810C5F1F4F07C08F
:100EE000F8016081718180E090E00E5F1F4FA201E8
:100EF0000E946808782E7418FFE7BF22B6FE0BC068
:100F00002EEFB2227E1438F4B4FE07C0B2FC05C046
:100F10008FEEB82202C0A72C01C0AE2C8B2D90E022
:100F2000B4FE0DC0FE01E70DF11D2081203319F440
:100F3000E9EEBE2209C0A394B2FE06C004C08678C2
:100F40009070009709F0A3948B2C9924B3FC14C0E3
:100F5000B0FE0FC0AF1428F4E72CEF0CEA18AF2C4A
:100F600008C0E72C06C080E290E0B6010E943C0871
:100F7000A394AF14C0F304C0AF1410F4FA1801C066
:100F8000FF2484FE0FC080E390E0B6010E943C087D
:100F900082FE1FC081FE03C088E590E010C088E794
:100FA00090E00DC0C40186789070009791F081FCAC
:100FB00002C080E201C08BE2B7FC8DE290E0B60196
:100FC0000E943C0806C080E390E0B6010E943C0805
:100FD000EA947E14C0F37A94F201E70DF11D80814A
:100FE00090E0B6010E943C087720A9F706C080E295
:100FF00090E0B6010E943C08FA94FF20C1F737CE7A
:10100000F6012681378102C02FEF3FEFC9012C96F0
:10101000CDBFDEBFCF91DF911F910F91FF90EF9079
:10102000DF90CF90BF90AF909F908F907F906F9008
:101030005F904F903F902F900895FC010590615074
:1010400070400110D8F7809590958E0F9F1F0895DE
:10105000FB01DC0102C001900D9241505040D8F7D5
:101060000895FC016150704001900110D8F78095FF
:1010700090958E0F9F1F08950F931F93CF93DF932B
:101080008C01EB018B8181FF1BC082FF0DC02E8183
:101090003F818C819D812817390764F4E881F981AB
:1010A0000193E883F98306C0E885F985802F1995B7
:1010B000009731F48E819F8101968E839F8302C0B9
:1010C0000FEF1FEFC801DF91CF911F910F9108958E
:1010D000FA01AA27283051F1203181F1E8946F9369
:1010E0006E7F6E5F7F4F8F4F9F4FAF4FB1E03ED00F
:1010F000B4E03CD0670F781F891F9A1FA11D680FAD
:10110000791F8A1F911DA11D6A0F711D811D911DDF
:10111000A11D20D009F468943F912AE0269F112454
:101120003019305D3193DEF6CF010895462F4770B8
:10113000405D4193B3E00FD0C9F7F6CF462F4F7013
:10114000405D4A3318F0495D31FD4052419302D071
:10115000A9F7EACFB4E0A695979587957795679517
:10116000BA95C9F700976105710508959B01AC0117
:101170000A2E06945795479537952795BA95C9F73E
:10118000620F731F841F951FA01D0895F894FFCF51
:1011900048616C746564206C696B65206120626FC6
:1011A00073732E2025730A000102030100A008B00A
:0211B0000A0033
:00000001FF
