:100000000C943A020C945F020C945F020C945F0211
:100010000C945F020C945F020C945F020C945F02DC
:100020000C945F020C945F020C945F020C945F02CC
:100030000C945F020C945F020C945F020C945F02BC
:100040000C945F020C945F020C945F020C945F02AC
:100050000C945F020C945F020C945F020C945F029C
:100060000C945F020C94EA070C9497070C945F02BF
:100070000C945F020C945F020C945F020C945F027C
:100080000C945F020C945F020C945F020C945F026C
:100090000C945F020C945F020C945F020C945F025C
:1000A0000C945F020C945F020C945F020C945F024C
:1000B0000C945F020C945F020C945F020C945F023C
:1000C0000C945F020C945F020C945F020C945F022C
:1000D0000C945F020C945F020C945F020C945F021C
:1000E0000C945F020C945F020C945F020C945F020C
:1000F0000C945F020C9496080C9443080C945F02D5
:100100000C945F020C945F020C945F020C945F02EB
:100110000C945F020C945F020C945F020C945F02DB
:100120000C945F020C945F020C945F020C945F02CB
:100130000C945F020C945F020C945F020C945F02BB
:100140000C945F020C945F020C945F020C945F02AB
:100150000C945F020C945F020C945F020C945F029B
:100160000C945F020C945F020C945F020C945F028B
:100170000C945F020C945F020C945F020C945F027B
:100180000C945F020C945F020C945F020C945F026B
:100190000C945F020C945F020C945F020C945F025B
:1001A0000C9458050C945F020C945F020C945F024F
:1001B0000C945F020C945F020C945F020C945F023B
:1001C0000C945F020C945F020C9469060C945F021D
:1001D0000C945F020C945F020C945F020C945F021B
:1001E0000C945F020C945F020C945F020C945F020B
:1001F0000C945F0216031804180418041804180459
:1002000018041804180418041804760318044F037B
:1002100018041804180418041804180418041804FE
:1002200018041804180418041804180418042803DF
:1002300018041D04180416031804180416031804DF
:1002400018041804180418041804180418041804CE
:1002500018041804160318041804160318041804C4
:100260001804160318041804F703180418041804D3
:1002700018049B03180416031804CB031603180470
:100280001804180418041804180418041804160391
:1002900018041804C00321041804160318041804D1
:1002A0001804160316031804D60325733E200025F0
:1002B00073232000556E6B6E6F776E2E203F206685
:1002C0006F722068656C702E004D6F746F722063C2
:1002D0006F6E74726F6C2064697361626C65640A1E
:1002E0000044656275672064697361626C65640AC5
:1002F0000053706565643A2025660A005370656591
:10030000643A2025660A0053706565643A202566C4
:100310000A0053706565643A2025660A00447269D4
:10032000766520636F6D6D616E64733A0A20207785
:1003300061736420202D20436F6E74726F6C207285
:100340006F626F740A20207370616365202D2053E3
:10035000746F700A20202D3D5F2B20202D204164DA
:100360006A7573742073706565640A202057415361
:100370004420202D20457865637574652064697379
:1003800074616E6365206D6F7665730A2020630962
:10039000202D2044697361626C65206D6F746F72EB
:1003A00020636F6E74726F6C0A2020507009202DCC
:1003B00020456E61626C652F44697361626C6520D3
:1003C0006D6F746F7220636F6E74726F6C206465F2
:1003D0006275670A20207A5A09202D204D6F6F6EB2
:1003E00077616C6B2028574950290A202071092019
:1003F0002D204261636B00436F6E74726F6C2050EE
:10040000616E656C733A0A202064202D2044726965
:1004100076650A202044202D204465706C6F790A8F
:10042000202067202D204761696E730A20206D20EF
:100430002D204D6F746F720A202073202D2053657C
:100440006E736F720A20206E202D204E61760A2076
:100450002074202D2054657374730053746172747A
:10046000696E672075700A006364696E6F707375DA
:1004700078585B0011241FBECFEFDFE3DEBFCDBF96
:1004800000E00CBF18BE19BE1ABE1BBE10E2A0E0F1
:10049000B0E2E4E4F2E200E00BBF02C007900D928C
:1004A000AC32B107D9F710E2ACE2B0E201C01D9264
:1004B000A53DB107E1F70E94A4050C9420110C940E
:1004C00000000F920F928BE594E0EDB7FEB78183A9
:1004D00092830E94060B0F900F900895EF92FF9267
:1004E0000F931F93DF93CF93CDB7DEB7A097CDBF08
:1004F000DEBF0F2EFEE2EF2EFF24F02DEC0EFD1ED0
:1005000000D00F928FEA92E0EDB7FEB7818392831D
:100510008AA59BA5838394830E94060B0F900F905E
:100520000F900F904091CF205091D0208E010F5FFF
:100530001F4FC80160E270E00E94A10AC8016CA5CB
:100540007DA54E2D5F2D0E941409A096CDBFDEBF64
:10055000CF91DF911F910F91FF90EF9008951F931E
:1005600000D00F922AEA32E0EDB7FEB72183328342
:10057000838394830E94060B0F900F900F900F902F
:100580008091CF209091D0200E945F0A182F609117
:10059000D1207091D2208AE090E00E94DA0A812F67
:1005A0001F9108952F923F924F925F926F927F9288
:1005B0008F929F92AF92BF92CF92DF92EF92FF9273
:1005C0000F931F93CF93DF9300E010E00F2EF0EA1C
:1005D000FF2EF02D0F2EF1E4EF2EF02DC0E0D0E233
:1005E0000F2EFDE1AF2EF3E0BF2EF02D0F2EF0EA1F
:1005F000DF2EF02D0F2EF1E4CF2EF02D0F2EF9EC83
:100600008F2EF2E09F2EF02D0F2EF1EE6F2EF2E0E6
:100610007F2EF02D0F2EF1EF4F2EF2E05F2EF02DFA
:100620000F2EFCEF2F2EF2E03F2EF02DCE010E9478
:10063000AF0290E0FC01B097EB35F10508F0F8C08F
:10064000E650FF4FEE0FFF1F0590F491E02D199437
:10065000602F712F8F2D9E2D20E030E040E050E480
:100660000E946C09062F172FF82EE92E00D000D01B
:1006700022E133E0EDB7FEB721833283862F912F3D
:10068000AF2DBE2D83839483A583B6830E94060B72
:100690002DB73EB72A5F3F4F2DBF3EBFC7CF602F5C
:1006A000712F8F2D9E2D20E030E040E050E40E941D
:1006B0006B09062F172FF82EE92E00D000D027E067
:1006C00033E0EDB7FEB721833283862F912FAF2D14
:1006D000BE2D83839483A583B6830E94060B2DB71A
:1006E0003EB72A5F3F4F2DBF3EBFA0CF602F712F77
:1006F0008F2D9E2D20E030E040E251E40E946C09F5
:10070000062F172FF82EE92E00D000D0EDB7FEB738
:1007100021823282862F912FAF2DBE2D8383948329
:10072000A583B6830E94060B2DB73EB72A5F3F4FC5
:100730002DBF3EBF7BCF602F712F8F2D9E2D20E0D0
:1007400030E040E251E40E946B09062F172FF82E8B
:10075000E92E00D000D0EDB7FEB741825282862F3D
:10076000912FAF2DBE2D83839483A583B6830E94E2
:10077000060B2DB73EB72A5F3F4F2DBF3EBF56CF6A
:100780000F920F92EDB7FEB7618272820E94060B44
:100790000F900F904BCF0F920F92EDB7FEB7818263
:1007A00092820E94060B0F900F9040CF84E190E060
:1007B000E9E6F8E13197F1F700C00000E3EDF0E37E
:1007C0003197F1F700C00000E9E6F8E13197F1F761
:1007D00000C00000E3EDF0E33197F1F700C0000046
:1007E000019731F700E010E0FD2CEC2C1FCF84E1E5
:1007F00090E0E9E6F8E13197F1F700C00000E3EDA1
:10080000F0E33197F1F700C00000E9E6F8E1319735
:10081000F1F700C00000E3EDF0E33197F1F700C01D
:100820000000019731F700E010E0FD2CEC2CFECE2B
:1008300084EB92E00E94260BF9CEC5010E94260BA4
:10084000F5CEDF91CF911F910F91FF90EF90DF9048
:10085000CF90BF90AF909F908F907F906F905F9060
:100860004F903F902F900895EF92FF920F931F9318
:10087000CF93DF93C6E0D0E207EF13E00F2EF4EB47
:10088000EF2EF2E0FF2EF02DCE010E94AF02873452
:1008900041F0843619F08F3361F40FC00E94D20208
:1008A000F3CF81E0DF91CF911F910F91FF90EF90F7
:1008B0000895C7010E94260BE7CFC8010E94260BAE
:1008C000E3CF1F93182F8A3019F48DE00E94610442
:1008D00080E0612F0E94C4068823D1F381E0612F5C
:1008E0000E94C4068823D1F381E090E01F9108950F
:1008F000EF92FF92CF93DF9380E00E942607EC01F6
:100900002FEF8F3F920741F481E00E942607EC0110
:100910003FEF8F3F930781F3CD30D10511F4CAE04B
:10092000D0E080912320882329F08C2F60E070E0B4
:100930000E9461049E018C2F932FDF91CF91FF9035
:10094000EF900895E0EEF7E082E081838583E0E4B4
:10095000F8E085E080838FEF9FEF86A397A381E681
:1009600094E0809334209093352088E794E080933E
:1009700036209093372083E080932F2010923820E8
:10098000109239208CE290E28093CF209093D02077
:100990008093D1209093D220089582E0E0EEF7E09A
:1009A000868308950895E0E4F8E010A211A2089566
:1009B000E0E4F8E020A131A1220F331F822F932F12
:1009C0000895DF93CF93CDB7DEB7C054D040CDBFED
:1009D000DEBFFE01EA5BFF4F41915191CE010196CE
:1009E00060E470E02E2F3F2F0E945E0B282F392FDE
:1009F000C9018D33910510F08CE390E0BE016F5F6B
:100A00007F4FFB01E80FF91F2DE020830196FB01CA
:100A1000E80FF91F2AE020838C0F9D1FFC01128232
:100A200080E00E94FE06C05CDF4FCDBFDEBFCF91ED
:100A3000DF9108958093232008950F931F93CF9300
:100A4000DF93EC010E9465060E9415060BE010E2A0
:100A500000D00F92ADB7BEB711960D931C931297AD
:100A60001396CD93DC9314970E94060B8FE39DE0C1
:100A7000A3E081509040A040E1F700C000000F903B
:100A80000F900F900F90E4CFE0EAF6E081818F7035
:100A9000818383E081878AE1878B80E8828708955C
:100AA00080913A2008950E9447060E94CD0408953F
:100AB0001F920F920FB60F9208B60F9209B60F92BF
:100AC0000BB60F92112418BE19BE1BBE2F933F9375
:100AD0004F935F936F937F938F939F93AF93BF9346
:100AE000EF93FF9381E080933A20E0EAF6E0848779
:100AF0000E945305FF91EF91BF91AF919F918F910C
:100B00007F916F915F914F913F912F910F900BBE0D
:100B10000F9009BE0F9008BE0F900FBE0F901F9050
:100B20001895E0EAF0E084E082838281826082832B
:100B3000828181608283789408950E9444050E9496
:100B4000A2040E94F80508950E9491050E949D0547
:100B50008FE39DE0A3E081509040A040E1F700C00A
:100B60000000FFCFE82FF0E0EC5DFF4D2081322F39
:100B7000330F81E090E002C0880F991F3A95E2F7A9
:100B8000982F990F6115710579F4892BA0E2B7E0D0
:100B900016968C931697E22FF0E0EE0FFF1FE85C9D
:100BA000F44F108211820895161617066CF4E0E2D5
:100BB000F7E096838583E22FF0E0EE0FFF1FE85CFD
:100BC000F44F608371830895A0E2B7E016968C938A
:100BD000169715969C931597E22FF0E0EE0FFF1FE6
:100BE000E85CF44F709561957F4F60837183089541
:100BF0008FEFE0E2F7E081838FE0E0EAF6E08183C7
:100C0000E0E0FBE081E0808383EF81838FEF93E07E
:100C100086A397A381E060E072E00E94B20580E0C5
:100C200060E072E00E94B2050895E0E0FBE010AEE3
:100C300011AE10923A0B10923B0B10923C0B10929B
:100C40003D0B10923E0B10923F0B0895E82FF0E001
:100C5000EC5DFF4D808190E0880F991FFC01E85DFD
:100C6000F44F20813181E0E2F7E0608541E050E01F
:100C7000FA0102C0EE0FFF1F8A95E2F7CF0186232B
:100C800019F4309521953F4F822F932F08950E949C
:100C90001506089580E064EF71E00E94B20581E0DE
:100CA00064EF71E00E94B205089581E0E0E4FBE0AA
:100CB00086830895E0E4FBE084E0808380E29EE4A4
:100CC00086A397A30E9455060895E0E4FBE01682F0
:100CD00008951F920F920FB60F9208B60F9209B6A1
:100CE0000F920BB60F92112418BE19BE1BBE2F9384
:100CF0003F934F935F936F937F938F939F93AF93A4
:100D0000BF93EF93FF930E945005882319F00E9430
:100D1000470602C00E944A06FF91EF91BF91AF9132
:100D20009F918F917F916F915F914F913F912F9103
:100D30000F900BBE0F9009BE0F9008BE0F900FBE14
:100D40000F901F901895E0E4F6E088E0858381839A
:100D5000E0EAF8E090E193838CE1848383E085838B
:100D60002EE6268328EA2783E0E8F6E020E82583BC
:100D70002183E0EBFAE0938398E19483858385E017
:100D800086838DEC87830895CF93DF9390E0FC01F9
:100D9000EE0FFF1FE85DFF4D0190F081E02D2AE48A
:100DA00030E0829FD001839FB00D929FB00D11243F
:100DB000A558BF4D2C912034E8F423812C7F238348
:100DC0004AE450E0849F9001859F300D949F300D40
:100DD0001124D901A558BF4D8C91280F311DE9016F
:100DE000C55CDF4D68838F5F8C93838181608383D3
:100DF00081E001C080E0DF91CF910895EF92FF92F2
:100E00000F931F93CF93DF93F82EFB01608166232E
:100E100089F08F010F5F1F4FC0E0D0E08F2D0E943F
:100E2000C406882349F02196F80161918F01662359
:100E3000A9F702C0C0E0D0E07E018C2F9F2DDF918A
:100E4000CF911F910F91FF90EF9008951F93CF9333
:100E5000DF9390E0FC01EE0FFF1FE85DFF4DC081C6
:100E6000D1812AE430E0829FF001839FF00D929FB0
:100E7000F00D1124EC57FF4D2081222341F12B81ED
:100E80002F7C2B834AE450E0849F9001859F300D96
:100E9000949F300D1124F901E55CFF4DDF01AF5B3C
:100EA000BF4F1C91E75BFF4F808181508083408161
:100EB000C90184589F4DBC016F5F7F4F50E00E9475
:100EC0004D0A8B8180638B83212F30E002C02FEF8E
:100ED0003FEF822F932FDF91CF911F91089590E0E4
:100EE0002AE430E0829FF001839FF00D929FF00D85
:100EF0001124EC57FF4D20812830C0F44AE450E023
:100F0000849F9001859F300D949F300D1124C9015D
:100F1000855C9F4DFC01E75BFF4F2081820F911D97
:100F2000DC01AF5BBF4F6C932F5F208308951F924E
:100F30000F920FB60F9208B60F9209B60F920BB62A
:100F40000F92112418BE19BE1BBE2F933F934F93CF
:100F50005F936F937F938F939F93AF93BF93EF9321
:100F6000FF9380917B20882321F180913B20809307
:100F7000A00880917B20815080937B2080917B20F2
:100F80008823F1F4FF91EF91BF91AF919F918F91E1
:100F90007F916F915F914F913F912F910F900BBE79
:100FA0000F9009BE0F9008BE0F900FBE0F901F90BC
:100FB00018958091A3088C7FE0EAF8E08383E2CF64
:100FC00040917B208BE390E26CE370E250E00E9462
:100FD0004D0AD8CF1F920F920FB60F9208B60F92FC
:100FE00009B60F920BB60F92112418BE19BE1BBE84
:100FF0001F932F933F934F935F936F937F938F93A1
:101000009F93AF93BF93EF93FF931091A0081B3171
:1010100051F1113241F1103631F180918420883044
:1010200050F480918420E82FF0E0E458FF4D1083C5
:101030008F5F80938420FF91EF91BF91AF919F913B
:101040008F917F916F915F914F913F912F911F9160
:101050000F900BBE0F9009BE0F9008BE0F900FBEF1
:101060000F901F901895F8940E94150687EA91E654
:101070000197F1F700C0000088ED84BF81E0E8E748
:10108000F0E08183CACF1F920F920FB60F9208B67D
:101090000F9209B60F920BB60F92112418BE19BE0B
:1010A0001BBE2F933F934F935F936F937F938F93C9
:1010B0009F93AF93BF93EF93FF938091C5208823B5
:1010C00021F1809185208093B00A8091C5208150C4
:1010D0008093C5208091C5208823F1F4FF91EF9182
:1010E000BF91AF919F918F917F916F915F914F9140
:1010F0003F912F910F900BBE0F9009BE0F9008BE2D
:101100000F900FBE0F901F9018958091B30A8C7F9F
:10111000E0EBFAE08383E2CF4091C52085E890E2DE
:1011200066E870E250E00E944D0AD8CF1F920F92FD
:101130000FB60F9208B60F9209B60F920BB60F9228
:10114000112418BE19BE1BBE1F932F933F934F93BC
:101150005F936F937F938F939F93AF93BF93EF931F
:10116000FF931091B00A1B3151F1113241F1103649
:1011700031F18091CE20883050F48091CE20E82F3C
:10118000F0E0EA53FF4D10838F5F8093CE20FF91F4
:10119000EF91BF91AF919F918F917F916F915F91EF
:1011A0004F913F912F911F910F900BBE0F9009BE51
:1011B0000F9008BE0F900FBE0F901F901895F894D7
:1011C0000E94150687EA91E60197F1F700C000003A
:1011D00088ED84BF81E0E8E7F0E08183CACF6A3020
:1011E00071058105910578F0E3ECF9E03197F1F7AD
:1011F00000C000006A507040804090406A30710525
:101200008105910588F7611571058105910559F0F2
:10121000E9EFF0E03197F1F700C000006150704055
:1012200080409040A9F70895DF93CF93CDB7DEB704
:101230002E97CDBFDEBF25E02C8389839A83CE0114
:1012400001960E944B0F2E96CDBFDEBFCF91DF914E
:101250000895EF92FF920F931F93E62EF72E082F1B
:10126000192F2BED3FE049E450E40E94490A18167B
:101270007CF46E2D7F2D802F912F2BED3FE049ECDC
:1012800050E40E946B09E62EF72E082F192F1AC082
:101290006E2D7F2D802F912F2BED3FE049E450ECF8
:1012A0000E94D009882374F46E2D7F2D802F912FFA
:1012B0002BED3FE049EC50E40E946C09E62EF72E3E
:1012C000082F192F6E2D7F2D802F912F1F910F9199
:1012D000FF90EF9008955058BB27AA270ED09FC0CB
:1012E00090D030F095D020F031F49F3F11F41EF4EF
:1012F00085C00EF4E095E7FB7BC0E92FA1D080F319
:10130000BA17620773078407950718F071F49EF502
:10131000B9C00EF4E0950B2EBA2FA02D0B01B90128
:1013200090010C01CA01A0011124FF27591B99F05B
:10133000593F50F4503E68F11A16F040A22F232F67
:10134000342F4427585FF3CF469537952795A795B7
:10135000F0405395C9F77EF41F16BA0B620B730B5E
:10136000840BBAF09150A1F0FF0FBB1F661F771FCF
:10137000881FC2F70EC0BA0F621F731F841F48F484
:10138000879577956795B795F7959E3F08F0B3CF0A
:101390009395880F08F09927EE0F979587950895F4
:1013A00003D008F481E00895990F0008550FAA0BA7
:1013B000E0E8FEEF16161706E807F907C0F0121668
:1013C0001306E407F50798F0621B730B840B950B6B
:1013D00039F40A2661F0232B242B252B21F40895C0
:1013E0000A2609F4A140A6958FEF811D811D08955D
:1013F00097F99F6780E870E060E008959FEF80ECC8
:10140000089500240A94161617061806090608956A
:1014100000240A9412161306140605060895092ED0
:101420000394000C11F4882352F0BB0F40F4BF2B3F
:1014300011F460FF04C06F5F7F4F8F4F9F4F08957F
:1014400057FD9058440F551F59F05F3F71F0479575
:10145000880F97FB991F61F09F3F79F0879508955A
:10146000121613061406551FF2CF4695F1DF08C079
:10147000161617061806991FF1CF86957105610596
:1014800008940895E894BB2766277727CB0197F93E
:1014900008958ADF08F48FEF08956817790768F4D4
:1014A000FB01DC01E40FF51FA40FB51F02C0029081
:1014B0000E9241505040D8F708950C949010CF935D
:1014C000DF93EC013B8130FF36C036FF09C03F7B24
:1014D0003B838E819F8101968E839F832A8129C0C1
:1014E00032FF0FC0E881F9818081992787FD9095AF
:1014F000009719F430623B831EC03196E883F9836C
:1015000011C0EA85FB85CE01199597FF0BC02B8191
:101510003FEF8F3F930711F480E101C080E2822BFF
:101520008B8309C02E813F812F5F3F4F2E833F83E6
:10153000282F30E002C02FEF3FEFC901DF91CF919C
:101540000895CF92DF92EF92FF920F931F93CF9364
:10155000DF93EC016A01FA01838180FF1FC0161638
:101560001706E4F47B010894E108F1088E0110C02D
:10157000C6010E945F0AFFEF8F3F9F0779F0F801D5
:1015800081938F018A30910531F00894E108F108C8
:10159000E114F10469F7F801108202C0C0E0D0E064
:1015A000CE01DF91CF911F910F91FF90EF90DF90CF
:1015B000CF9008950F931F93CF93DF938C01EB018E
:1015C0008B8181FF1BC082FF0DC02E813F818C81EA
:1015D0009D812817390764F4E881F9810193E88334
:1015E000F98306C0E885F985802F1995009731F4B5
:1015F0008E819F8101968E839F8302C00FEF1FEF24
:10160000C801DF91CF911F910F910895DF93CF9380
:10161000CDB7DEB7FE013696619171918091D120F0
:101620009091D220DC0113962C9113972860139689
:101630002C93AF010E94900BE091D120F091D22029
:101640002381277F2383CF91DF910895EF92FF922B
:101650000F931F93CF93DF938C01E091D120F091F2
:10166000D220838181FF20C0C0E0D0E00CC0DB012C
:101670001896ED91FC9119971995009711F0CFEFFD
:10168000DFEF0F5F1F4FF80184916091D1207091BF
:10169000D220882361F7DB011896ED91FC91199710
:1016A0008AE01995009711F0CFEFDFEFCE01DF91BF
:1016B000CF911F910F91FF90EF9008950F931F937B
:1016C000DF93CF93CDB7DEB72E97CDBFDEBF8C01B2
:1016D000CB01BA0146E04C8309831A8397FF02C00D
:1016E00080E090E801978D839E83CE010196A90149
:1016F0000E94900B4D815E8157FD0AC02F81388575
:10170000421753070CF49A01020F131FF8011082BD
:101710002E96CDBFDEBFCF91DF911F910F9108951F
:101720002F923F924F925F926F927F928F929F92F1
:10173000AF92BF92CF92DF92EF92FF920F931F93DF
:10174000DF93CF93CDB7DEB72C97CDBFDEBF6C0153
:101750001B018A01FC0116821782838181FFD1C19E
:101760002E010894411C511CF6019381F10193FD57
:10177000859193FF81911F01882309F4BEC18532B1
:1017800039F493FD859193FF81911F01853229F4EE
:1017900090E0B6010E94DA0AE7CFEE24FF2420E0B1
:1017A0002032B0F48B3269F08C3228F4803251F060
:1017B000833271F40BC08D3239F0803349F42160EB
:1017C0002CC02260246029C0286027C0206125C069
:1017D00027FD2CC0382F30533A3098F426FF08C02C
:1017E0008E2D880FE82EEE0CEE0CE80EE30E15C0E1
:1017F0008F2D880FF82EFF0CFF0CF80EF30E2062D1
:101800000CC08E3221F426FD78C1206406C08C36CF
:1018100011F4206802C0883649F4F10193FD8591E6
:1018200093FF81911F01882309F0BACF982F955417
:10183000933018F09052933028F40C5F1F4FFFE361
:10184000F9830DC0833631F0833771F0833509F0A9
:1018500060C022C0F801808189830E5F1F4F420162
:1018600071E0A72EB12C16C062E0662E712C600EBE
:10187000711EF8018080918026FF03C06E2D70E0FC
:1018800002C06FEF7FEFC4012C870E9499105C01AA
:1018900083012C852F7717C052E0652E712C600EC6
:1018A000711EF8018080918026FF03C06E2D70E0CC
:1018B00002C06FEF7FEFC4012C870E9485105C018E
:1018C0002C852068830123FD20C008C080E290E0C1
:1018D000B6012C870E94DA0AFA942C858F2D90E0AD
:1018E000A816B90698F311C0F40127FD859127FFCA
:1018F00081914F0190E0B6012C870E94DA0A2C8575
:10190000F110FA940894A108B108A114B10461F788
:10191000F1C0843611F0893649F527FF08C0F80177
:1019200060817181828193810C5F1F4F09C0F80132
:1019300060817181882777FD8095982F0E5F1F4FFA
:101940004FE6B42EB22297FF09C09095809570950E
:1019500061957F4F8F4F9F4FF0E8BF2AA2012AE089
:1019600030E00E94BF10782E741845C0853731F4DE
:101970003FEEB32EB2222AE030E025C099EFB92E17
:10198000B2228F36C1F0803720F4883509F0B5C017
:101990000DC0803721F0883709F0AFC002C020E1C8
:1019A000B22AB4FE0BC084E0B82A08C0B4FE09C055
:1019B000E6E0BE2A06C028E030E005C020E130E0C5
:1019C00002C020E132E0B7FE08C0F80160817181F9
:1019D000828193810C5F1F4F07C0F8016081718184
:1019E00080E090E00E5F1F4FA2010E94BF10782E92
:1019F0007418FFE7BF22B6FE0BC02EEFB2227E1492
:101A000038F4B4FE07C0B2FC05C08FEEB82202C0A5
:101A1000A72C01C0AE2C8B2D90E0B4FE0DC0FE01B2
:101A2000E70DF11D2081203319F4E9EEBE2209C033
:101A3000A394B2FE06C004C086789070009709F0A7
:101A4000A3948B2C9924B3FC14C0B0FE0FC0AF1428
:101A500028F4E72CEF0CEA18AF2C08C0E72C06C0DE
:101A600080E290E0B6010E94DA0AA394AF14C0F3BA
:101A700004C0AF1410F4FA1801C0FF2484FE0FC094
:101A800080E390E0B6010E94DA0A82FE1FC081FE68
:101A900003C088E590E010C088E790E00DC0C40165
:101AA00086789070009791F081FC02C080E201C0BE
:101AB0008BE2B7FC8DE290E0B6010E94DA0A06C024
:101AC00080E390E0B6010E94DA0AEA947E14C0F343
:101AD0007A94F201E70DF11D808190E0B6010E9439
:101AE000DA0A7720A9F706C080E290E0B6010E94EA
:101AF000DA0AFA94FF20C1F737CEF6012681378142
:101B000002C02FEF3FEFC9012C96CDBFDEBFCF91B2
:101B1000DF911F910F91FF90EF90DF90CF90BF90DA
:101B2000AF909F908F907F906F905F904F903F907D
:101B30002F90089520FD09C0FC0123FD05C022FF60
:101B400002C073836283518340830895EF92FF92B2
:101B50000F931F9344FD10C046FD10C0DB01FC0134
:101B6000AA0FBB1FEE1FFF1F1094D1F76A0F7B1F38
:101B70008E1F9F1F31E003C033E001C034E0660FC9
:101B8000771F881F991F3150D1F77B018C01E20E1E
:101B9000F11C011D111DA8019701B701CA011F9178
:101BA0000F91FF90EF900895EF92FF920F931F9384
:101BB000CF93DF938C01C8010E945F0AEC0197FD6F
:101BC00008C00E9472100097B1F7CE01B8010E94C0
:101BD000A410CE01DF91CF911F910F91FF90EF9054
:101BE00008958F929F92AF92BF92DF92EF92FF92F1
:101BF0000F931F93DF93CF930F92CDB7DEB74C01B6
:101C0000D62E5A01122F0E945F0A8B3219F08D32A4
:101C100049F41068DA9409F46CC0C4010E945F0AA8
:101C200097FD67C0312F3D7F232F2073F1F4803360
:101C3000E1F4DA9409F448C0C40139830E945F0AD0
:101C4000398197FD41C03260883711F0883559F4E9
:101C50003064DA94C9F1C40139830E945F0A398182
:101C600097FF03C031C036FF3061EE24FF248701A7
:101C7000282F2053283090F034FD09C02A3070F00E
:101C800036FF05C02F7D422F4151463030F0B40160
:101C900039830E94A410398114C02750C801B701AC
:101CA000432F39830E94A60D7B018C01398132605C
:101CB000DA9469F0C40139830E945F0A398197FF81
:101CC000D7CF31FD04C015C0EE24FF24870137FFB4
:101CD00008C010950095F094E094E11CF11C011DE2
:101CE000111DC501B801A701232F0E949A0D81E0A3
:101CF00001C080E00F90CF91DF911F910F91FF9075
:101D0000EF90DF90BF90AF909F908F9008956F926B
:101D10007F928F929F92AF92BF92CF92DF92EF927B
:101D2000FF920F931F93DF93CF93CDB7DEB7A197A9
:101D3000CDBFDEBF6C018A0179019E012F5F3F4F4D
:101D400080E2F90111928A95E9F7F601838080E03B
:101D500090E0BB24992470E0A1E0B0E0F70183FC9F
:101D6000A59083FEA1907F01AA2009F47FC0FA2DDF
:101D7000FE3511F4009751F1472F50E048175907ED
:101D800044F44A2D4D3551F14D3219F4992001F1A9
:101D900003C0992009F4BA2C4A2D469546954695DC
:101DA000F901E40FF11D4A2D47703D0102C0660C98
:101DB000771C4A95E2F7908096289082AB1459F0F0
:101DC000AB1410F4A394E8CFAA94E6CF71E004C05A
:101DD0009924939401C099240196C0CF992019F0B9
:101DE0008E8180628E83772351F0CE018196FE0131
:101DF0003196208120952193E817F907D1F7BB246C
:101E0000B3944E010894811C911C01C0BB24C601EF
:101E100069A30E945F0A69A197FD20C0282F26951B
:101E200026952695F401E20FF11D208130E0AC01EA
:101E30004770507002C0359527954A95E2F720FD0E
:101E400004C0B6010E94A41009C00115110519F0C3
:101E5000F80181938F016150C9F602C0BB2031F4B3
:101E60000115110529F0F801108202C0EE24FF24AB
:101E7000C701A196CDBFDEBFCF91DF911F910F911A
:101E8000FF90EF90DF90CF90BF90AF909F908F909A
:101E90007F906F9008954F925F926F927F929F9282
:101EA000AF92BF92CF92DF92EF92FF920F931F9368
:101EB000DF93CF930F92CDB7DEB77C016B013A0170
:101EC000FC011682178200E0E9C0812F90E00E9499
:101ED0007210009721F0C7010E94D40DDFC01532A7
:101EE00041F4F601A3FC3591A3FE31916F01353227
:101EF00061F4C7010E945F0A97FDDCC0181709F45E
:101F0000CDC0B7010E94A410D7C03A3239F4A3FC67
:101F10003591A3FE31916F0111E001C010E09924C9
:101F20000FC01260692D70E080E090E040E20E94F6
:101F3000A60D962EF601A3FC3591A3FE31916F01FB
:101F4000232F20532A3068F311FF03C0992019F47E
:101F5000B3C099249A94383619F03C3689F409C0F4
:101F6000F601A3FC3591A3FE31916F01383641F49F
:101F700018601460F601A3FC3591A3FE31916F0146
:101F8000332309F499C088E694E0632F70E0398325
:101F90000E947A103981009709F48EC0812F10FDBC
:101FA00008C0F3014080518042E050E0640E751E8D
:101FB00002C0442455243E3651F4F701468157812E
:101FC00060E070E0C201212F0E949A0D67C0333695
:101FD00091F481FD02C099249394C7010E945F0A85
:101FE00097FD68C04114510419F0F20181932F014B
:101FF0009A9499F751C03B3559F4C701692DA20154
:1020000096010E94870E6C01009709F045C03FC001
:10201000C70139830E94D40D398197FD4BC03F36EB
:1020200059F1303728F4343629F1393639F527C0DB
:10203000333719F0353711F51DC0C7010E945F0A0B
:102040005C0197FD11C00E947210009729F0C50134
:10205000B7010E94A41008C04114510419F0F20104
:10206000A1922F019A9449F741145104A9F0F20169
:10207000108212C0106203C0106101C01064C70159
:10208000692DA201212F0E94F10D882329F4F70167
:102090008381807379F410C010FF0F5FF701A38074
:1020A000F601A3FC1591A3FE11916F01112309F014
:1020B0000CCF02C0002311F010E002C00FEF1FEFA1
:1020C000C8010F90CF91DF911F910F91FF90EF907A
:1020D000DF90CF90BF90AF909F907F906F905F9078
:1020E0004F9008959111A9C0803219F08950855000
:1020F000D0F70895FC010590061621F00020D9F7CD
:10210000C00108953197CF010895FC0105906150F9
:1021100070400110D8F7809590958E0F9F1F0895FD
:10212000FB01DC0102C001900D9241505040D8F7F4
:102130000895FC016150704001900110D8F780951E
:1021400090958E0F9F1F0895FB01238120FF13C0E0
:1021500026FD11C03FEF8F3F930769F08283206413
:102160002F7D23832681378121503040268337837A
:10217000282F30E002C02FEF3FEFC9010895FA0188
:10218000AA27283051F1203181F1E8946F936E7FB6
:102190006E5F7F4F8F4F9F4FAF4FB1E03ED0B4E0A7
:1021A0003CD0670F781F891F9A1FA11D680F791FE8
:1021B0008A1F911DA11D6A0F711D811D911DA11DF9
:1021C00020D009F468943F912AE0269F1124301909
:1021D000305D3193DEF6CF010895462F4770405DA4
:1021E0004193B3E00FD0C9F7F6CF462F4F70405D53
:1021F0004A3318F0495D31FD4052419302D0A9F7AE
:10220000EACFB4E0A6959795879577956795BA95A7
:10221000C9F700976105710508959B01AC010A2E6D
:1022200006945795479537952795BA95C9F7620F44
:10223000731F841F951FA01D08959927882708954F
:04224000F894FFCF40
:102244004472697665004D61696E0048616C74651D
:1022540064206C696B65206120626F73732E202586
:0C226400730A000102030100A008B00A88
:00000001FF
