:100000000C94FA000C9417010C9417010C9417012E
:100010000C9417010C9417010C9417010C94170100
:100020000C9417010C9417010C9417010C941701F0
:100030000C9417010C9417010C9417010C941701E0
:100040000C9417010C9417010C9417010C941701D0
:100050000C9417010C9417010C9417010C941701C0
:100060000C9417010C9417010C9417010C941701B0
:100070000C9417010C9417010C9417010C941701A0
:100080000C9417010C9417010C9417010C94170190
:100090000C9417010C9417010C9417010C94170180
:1000A0000C9417010C9417010C9417010C94170170
:1000B0000C9417010C9417010C9417010C94170160
:1000C0000C9417010C9417010C9417010C94170150
:1000D0000C9417010C9417010C9417010C94170140
:1000E0000C9417010C9417010C9417010C94170130
:1000F0000C9417010C9417010C9417010C94170120
:100100000C9417010C9417010C9417010C9417010F
:100110000C9417010C9417010C9417010C941701FF
:100120000C9417010C9417010C9417010C941701EF
:100130000C9417010C9417010C9417010C941701DF
:100140000C9417010C9417010C9417010C941701CF
:100150000C9417010C9417010C9417010C941701BF
:100160000C9417010C9417010C9417010C941701AF
:100170000C9417010C9417010C9417010C9417019F
:100180000C9417010C9417010C9417010C9417018F
:100190000C9417010C9417010C9417010C9417017F
:1001A0000C9417010C9417010C9417010C9417016F
:1001B0000C9417010C9417010C9417010C9417015F
:1001C0000C9417010C9417010C9417010C9417014F
:1001D0000C9417010C9417010C9417010C9417013F
:1001E0000C9417010C9417010C9417010C9417012F
:1001F0000C94170111241FBECFEFDFE3DEBFCDBF8C
:1002000000E00CBF18BE19BE1ABE1BBE10E2A0E073
:10021000B0E2E4EBF1E100E00BBF02C007900D9209
:10022000AA31B107D9F70E9428010C94D8080C9480
:100230000000DF93CF93CDB7DEB780EE97E020913B
:10024000042030910520FC012183CF91DF91089596
:100250000F931F93DF93CF93CDB7DEB76C97CDBFCE
:10026000DEBF0E9419010E94460280EE97E02091B5
:10027000042030910520FC01258380E090E0AAE76E
:10028000B4E489839A83AB83BC8369817A818B814F
:100290009C8120E030E04AE753E40E943B05DC010A
:1002A000CB018D839E83AF83B88711E06D817E8102
:1002B0008F81988520E030E040E85FE30E9495065A
:1002C00088230CF010E0112329F081E090E0898769
:1002D0009A8746C011E06D817E818F81988520E0EC
:1002E0003FEF4FE757E40E94350618160CF010E078
:1002F000112361F169817A818B819C8120E030E05A
:1003000040E251E40E943B05DC01CB01BC01CD0180
:100310000E946703DC01CB0189879A8712C089E1BB
:1003200090E08B879C878B859C858C01C801019709
:10033000F1F78C010B871C8789859A85019789873E
:100340009A8789859A85009751F717C06D817E81BC
:100350008F8198850E946703DC01CB0189879A878A
:1003600089859A858D879E878D859E858C01F8016C
:100370003197F1F78F010D871E8780EE97E020916E
:10038000042030910520FC01268380E090E0AAE75C
:10039000B4E48F87988BA98BBA8B6F85788989890C
:1003A0009A8920E030E04AE753E40E943B05DC01F3
:1003B000CB018B8B9C8BAD8BBE8B11E06B897C89C9
:1003C0008D899E8920E030E040E85FE30E94950639
:1003D00088230CF010E0112329F081E090E08F8B4E
:1003E000988F46C011E06B897C898D899E8920E0B9
:1003F0003FEF4FE757E40E94350618160CF010E067
:10040000112361F16F85788989899A8920E030E02C
:1004100040E251E40E943B05DC01CB01BC01CD016F
:100420000E946703DC01CB018F8B988F12C089E19A
:1004300090E0898F9A8F898D9A8D8C01C8010197E0
:10044000F1F78C01098F1A8F8F89988D01978F8B07
:10045000988F8F89988D009751F707CF6B897C898A
:100460008D899E890E946703DC01CB018F8B988F59
:100470008F89988D8B8F9C8F8B8D9C8D8C01F80133
:100480003197F1F78F010B8F1C8FEFCEDF93CF9356
:10049000CDB7DEB780E297E020910A2030910B20A3
:1004A000FC01218380EA96E020910C2030910D2000
:1004B000FC01218380E09BE021E0FC01208380E0BF
:1004C0009BE023EFFC01218380E09BE02FEF33E0F2
:1004D000FC0126A337A381E060E072E00E9478026D
:1004E00080E060E072E00E947802CF91DF91089591
:1004F000DF93CF93CDB7DEB72597CDBFDEBF8B831C
:100500006C837D838B81882F90E0825F9F4DFC01FF
:100510008081882F90E09C01220F331F81E090E0C2
:10052000022E02C0880F991F0A94E2F789838981FD
:10053000880F8A838C819D810097C1F480E297E0C7
:1005400039812A81232BFC0126838B81882F90E01F
:10055000825F9F4DFC018081882F90E0880F991F5A
:10056000885C944FFC011082118241C08C819D8176
:1005700018161906ECF480E297E02A81FC01268324
:1005800080E297E02981FC0125838B81882F90E010
:10059000825F9F4DFC018081882F90E0880F991F1A
:1005A000885C944F2C813D81FC01208331831FC0E6
:1005B00080E297E02981FC01268380E297E02A818E
:1005C000FC0125838B81882F90E0825F9F4DFC0189
:1005D0008081882F90E0880F991F885C944F2C8130
:1005E0003D81309521953F4FFC0120833183259635
:1005F000CDBFDEBFCF91DF910895DF93CF930F92F0
:100600000F92CDB7DEB719821A820EC089819A8106
:10061000880F991F885C944FFC0110821182898198
:100620009A81019689839A83809106209091072070
:1006300029813A81281739074CF30F900F90CF91F9
:10064000DF910895DF93CF9300D00F92CDB7DEB73F
:100650008C838C81882F90E0825F9F4DFC0180818C
:10066000882F90E0880F991F885D944FFC0180814E
:10067000918189839A838C81882F90E0825F9F4D3E
:10068000FC018081882F90E09C01220F331F81E0C4
:1006900090E0022E02C0880F991F0A94E2F78B8324
:1006A00080E297E0FC0190858B818923882339F4CF
:1006B00089819A81909581959F4F89839A838981B9
:1006C0009A812496CDBFDEBFCF91DF910895EF923E
:1006D000FF920F931F937B018C0120E030E040E0FC
:1006E0005FE40E94650687FD11C0C801B70120E0E4
:1006F00030E040E05FE40E940A050E94C5069B01CD
:10070000AC01205030404040504806C0C801B701FD
:100710000E94C5069B01AC01B901CA011F910F914E
:10072000FF90EF900895A0E0B0E0E9E9F3E00C94C9
:10073000AB08FC01EA018081823008F438C1DB019A
:100740009C91923008F430C1843059F4943009F00F
:100750002EC1918111968C911197981709F021C1A2
:1007600026C1943009F420C19230B1F4823009F0EE
:100770001EC1CA01AF0128E0DA010D90AD01DC0114
:100780000D92CD012150C1F7DB0111968C9111978B
:100790009181892389830AC1823009F405C1C2800D
:1007A000D380DB0112966D907C9013972481358164
:1007B000468157811496ED90FD900D911C911797ED
:1007C000C601861997095C0197FF04C0AA24BB24BF
:1007D000A81AB90AB0E2AB16B1040CF061C0181641
:1007E00019066CF5370148010A2C04C096948794C9
:1007F000779467940A94D2F781E090E0A0E0B0E0AB
:100800000A2C04C0880F991FAA1FBB1F0A94D2F795
:100810000197A109B1098E219F21A023B123EE24C4
:10082000FF248701E3940097A105B10519F4EE2494
:10083000FF248701E628F728082919293CC00097DA
:10084000D1F1CA0CDB1C39014A010A2C04C0969470
:100850008794779467940A94D2F781E090E0A0E0BF
:10086000B0E00A2C04C0880F991FAA1FBB1F0A946E
:10087000D2F70197A109B10982239323A423B523B9
:1008800021E030E040E050E00097A105B10519F407
:1008900020E030E0A90126293729482959290BC031
:1008A0006C147D0424F4EE24FF24870104C063014A
:1008B00020E030E0A9018181FB019181891709F4D1
:1008C00045C0882349F0D801C701821B930BA40BB4
:1008D000B50B9C01AD0104C02E193F09400B510B13
:1008E00057FD04C01982CA82DB820BC081E0898374
:1008F000CA82DB8250954095309521953F4F4F4FEE
:100900005F4F2C833D834E835F830DC0880F991FFB
:10091000AA1FBB1F8C839D83AE83BF838A819B816B
:1009200001978A839B838C819D81AE81BF819C01CD
:10093000AD0121503040404050402F3FEFEF3E0787
:10094000EFEF4E07EFE35E0708F30BC08983CA821F
:10095000DB822E0D3F1D401F511F2C833D834E8394
:100960005F8383E088832C813D814E815F8157FFC7
:100970001DC0DA01C90181709070A070B0705695E9
:10098000479537952795822B932BA42BB52B8C83DA
:100990009D83AE83BF838A819B8101968A839B83DB
:1009A00005C0E2E1F0E203C0FB0101C0FE01CF019E
:1009B000CDB7DEB7EEE00C94C408A0E2B0E0E3EE01
:1009C000F4E00C94B30869837A838B839C832D8332
:1009D0003E834F83588789E0E82EF12CEC0EFD1EF4
:1009E000CE010196B7010E94E5078E010F5E1F4FF1
:1009F000CE010596B8010E94E507C701B801AE0116
:100A0000475E5F4F0E9493030E941707A096E6E09F
:100A10000C94CC08A0E2B0E0E0E1F5E00C94B3085F
:100A200069837A838B839C832D833E834F8358878E
:100A30008E01075F1F4FCE010196B8010E94E507A6
:100A400091E1E92EF12CEC0EFD1ECE010596B701C9
:100A50000E94E5078A8991E089278A8BC801B7013E
:100A6000AE01475E5F4F0E9493030E941707A09656
:100A7000E6E00C94CC08A0E2B0E0E1E4F5E00C94F0
:100A8000A70869837A838B839C832D833E834F835E
:100A90005887CE010196BE01675F7F4F0E94E50730
:100AA000CE010596BE016F5E7F4F0E94E5079985D6
:100AB000923078F089898230C0F0943019F4823015
:100AC00041F4CBC0843019F4923079F4C6C092302E
:100AD00051F481E02A859A89291709F480E08A87F0
:100AE000CE010996BCC0823051F481E02A859A89F2
:100AF000291709F480E08A8BCE014196B0C06D843D
:100B00007E848F849888ED88FE880F89188DE0E2B6
:100B1000F0E080E090E0DC01AA24BB24650120E045
:100B200030E0A901B3016170707061157105D1F0F9
:100B30002E0D3F1D401F511F15012601280E391E85
:100B40004A1E5B1E81E090E0A0E0B0E02E153F055C
:100B50004007510718F080E090E0DC01820D931D02
:100B6000A41DB51DAA0CBB1CCC1CDD1C17FF09C0A5
:100B700061E0262E312C412C512CA228B328C42808
:100B8000D528319749F0EE0CFF1C001F111F9694D9
:100B9000879477946794C6CF6B897C89EB85FC85B5
:100BA0006E0F7F1F6E5F7F4F6B8F7C8F61E0EA85DA
:100BB0007A89E71709F460E06A8F6B8D7C8D10C02D
:100BC000FC01E170F070309729F056954795379504
:100BD00027955068B695A795979587956F5F7F4F36
:100BE000B7FDEECF0CC0880F991FAA1FBB1F57FD82
:100BF0008160220F331F441F551F615070408030A9
:100C0000E0E09E07E0E0AE07E0E4BE0760F36B8F34
:100C10007C8F6FE7E62EF12C012D112DE822F922B1
:100C20000A231B2360E4E616F1040105110561F4B3
:100C300087FD0AC0211531054105510529F0805C69
:100C40009F4FAF4FBF4F80788D8F9E8FAF8FB8A3D0
:100C500083E0898FCE01499602C082E190E20E9432
:100C60001707A096E2E10C94C008A8E1B0E0EBE31E
:100C7000F6E00C94B30869837A838B839C832D837D
:100C80003E834F8358878E01075F1F4FCE01019629
:100C9000B8010E94E50781E1E82EF12CEC0EFD1E63
:100CA000CE010596B7010E94E5078985823040F0A4
:100CB0008989823028F0C801B7010E944E0801C01E
:100CC0008FEF6896E6E00C94CC08A8E1B0E0EBE684
:100CD000F6E00C94B30869837A838B839C832D831D
:100CE0003E834F8358878E01075F1F4FCE010196C9
:100CF000B8010E94E50781E1E82EF12CEC0EFD1E03
:100D0000CE010596B7010E94E5078985823040F043
:100D10008989823028F0C801B7010E944E0801C0BD
:100D20008FEF6896E6E00C94CC08A8E1B0E0EBE920
:100D3000F6E00C94B30869837A838B839C832D83BC
:100D40003E834F8358878E01075F1F4FCE01019668
:100D5000B8010E94E50781E1E82EF12CEC0EFD1EA2
:100D6000CE010596B7010E94E5078985823040F0E3
:100D70008989823028F0C801B7010E944E0801C05D
:100D800081E06896E6E00C94CC08ACE0B0E0EBECD7
:100D9000F6E00C94B70869837A838B839C83CE0139
:100DA0000196BE016B5F7F4F0E94E5078D81823007
:100DB00081F1823070F1843021F48E81882369F1D1
:100DC0000AC02F81388537FD24C06E812F3131054F
:100DD0003CF0662311F120E030E040E050E821C013
:100DE0008EE190E0821B930B29853A854B855C85CB
:100DF00004C056954795379527958A95D2F766236F
:100E000081F050954095309521953F4F4F4F5F4F62
:100E100008C020E030E0A90104C02FEF3FEF4FEF02
:100E20005FE7B901CA012C96E2E00C94D008EF927A
:100E3000FF920F931F93CF93DF93FC0124813581A1
:100E40004681578161818081823020F44061EFEFDB
:100E5000F0E0A3C0843009F49BC0823009F492C052
:100E6000211531054105510509F48FC00280F38138
:100E7000E02D8FEFE238F8070CF05AC0C2E8DFEF40
:100E8000CE1BDF0BCA31D1056CF579018A010C2E1E
:100E900004C016950795F794E7940A94D2F781E079
:100EA00090E0A0E0B0E00C2E04C0880F991FAA1FAC
:100EB000BB1F0A94D2F70197A109B109822393239A
:100EC000A423B52321E030E040E050E00097A105E5
:100ED000B10519F420E030E0A9012E293F29402B6B
:100EE000512B03C020E030E0A901DA01C9018F775E
:100EF0009070A070B07080349105A105B10539F4EF
:100F000027FF09C0205C3F4F4F4F5F4F04C0215C5B
:100F10003F4F4F4F5F4FE1E0F0E0203080E0380777
:100F200080E0480780E4580728F5E0E0F0E022C0C0
:100F3000E038F1056CF5E158FF4FDA01C9018F7710
:100F40009070A070B07080349105A105B10539F49E
:100F500027FF09C0205C3F4F4F4F5F4F04C0215C0B
:100F60003F4F4F4F5F4F57FF05C0569547953795F9
:100F70002795319687E056954795379527958A9519
:100F8000D1F70BC0E0E0F0E005C0E0E0F0E005C024
:100F9000EFEFF0E020E030E0A9018E2F8795882761
:100FA0008795942F9F77679566276795E695E22E3C
:100FB000A92FA82BFE2FF62B622F732F8A2F9F2F7E
:100FC000CDB7DEB7E6E00C94CC08DC01FB012C9138
:100FD00011963C91119712968C911297482F4F774A
:100FE00050E0982F991F9927991F13966C9113978A
:100FF000862F880F892B90E0661F6627661F618306
:10100000009739F5211531054105510511F482E0AC
:1010100029C082E89FEF8283938367E0220F331F0A
:10102000441F551F6A95D1F783E0808309C0220FC2
:10103000331F441F551F82819381019782839383BD
:10104000203080E0380780E0480780E4580778F3D4
:1010500020C08F3F910579F42115310541055105D7
:1010600019F484E08083089544FF03C081E0808305
:1010700010C010820EC08F5790408283938383E00C
:10108000808387E0220F331F441F551F8A95D1F7B5
:10109000506424833583468357830895FC01DB0124
:1010A0009081923008F449C08C91823008F445C098
:1010B000943051F461818430B1F511962C911197DF
:1010C00030E0261B310941C0843021F0923041F4D8
:1010D0008230B1F111968C9111978823A1F12DC026
:1010E0006181823001F111968C9111976817D9F4C2
:1010F0002281338112968D919C91139782179307C9
:1011000094F028173907BCF0248135814681578136
:1011100014968D919D910D90BC91A02D82179307EF
:10112000A407B50718F4662341F00DC02817390746
:101130004A075B0728F4662331F021E030E005C060
:1011400020E030E002C02FEF3FEFC90108952F9259
:101150003F924F925F926F927F928F929F92AF9247
:10116000BF92CF92DF92EF92FF920F931F93CF9394
:10117000DF93CDB7DEB7CA1BDB0BCDBFDEBF199443
:101180002A88398848885F846E847D848C849B8417
:10119000AA84B984C884DF80EE80FD800C811B8125
:1011A000AA81B981CE0FD11DCDBFDEBFED0108955B
:0411B000F894FFCFE1
:1011B40004000004020004000004FF000F00020306
:0A11C4000100000000000000000020
:00000001FF
