:100000000C94FA000C941F010C941F010C941F0116
:100010000C941F010C941F010C941F010C941F01E0
:100020000C941F010C941F010C941F010C941F01D0
:100030000C941F010C941F010C941F010C941F01C0
:100040000C941F010C941F010C941F010C941F01B0
:100050000C941F010C941F010C941F010C941F01A0
:100060000C941F010C941F010C941F010C941F0190
:100070000C941F010C941F010C941F010C941F0180
:100080000C941F010C941F010C941F010C941F0170
:100090000C941F010C941F010C941F010C941F0160
:1000A0000C941F010C941F010C941F010C941F0150
:1000B0000C941F010C941F010C941F010C941F0140
:1000C0000C941F010C941F010C941F010C941F0130
:1000D0000C941F010C941F010C941F010C941F0120
:1000E0000C941F010C941F010C941F010C941F0110
:1000F0000C941F010C941F010C941F010C941F0100
:100100000C941F010C941F010C941F010C941F01EF
:100110000C941F010C941F010C941F010C941F01DF
:100120000C941F010C941F010C941F010C941F01CF
:100130000C941F010C941F010C941F010C941F01BF
:100140000C941F010C941F010C941F010C941F01AF
:100150000C941F010C941F010C941F010C941F019F
:100160000C941F010C941F010C941F010C941F018F
:100170000C941F010C941F010C941F010C941F017F
:100180000C941F010C941F010C941F010C941F016F
:100190000C941F010C941F010C941F010C941F015F
:1001A0000C947A010C941F010C941F010C941F01F4
:1001B0000C941F010C941F010C941F010C941F013F
:1001C0000C941F010C941F010C941F010C941F012F
:1001D0000C941F010C941F010C941F010C941F011F
:1001E0000C941F010C941F010C941F010C941F010F
:1001F0000C941F0111241FBECFEFDFE3DEBFCDBF84
:1002000000E00CBF18BE19BE1ABE1BBE10E2A0E073
:10021000B0E2ECEBF9E000E00BBF02C007900D92FA
:10022000AE31B107D9F710E2AEE1B0E201C01D92E4
:10023000AF31B107E1F70E94F0010C94DC040C949B
:100240000000DF93CF93CDB7DEB780EE97E020912B
:10025000002030910120FC01218380EE97E0209165
:10026000002030910120FC012583CF91DF9108957A
:10027000DF93CF93CDB7DEB780EE97E020910020DB
:1002800030910120FC012683CF91DF910895DF9307
:10029000CF93CDB7DEB780EA96E020EA36E0F901E9
:1002A00021812F70FC01218380EA96E023E0FC018C
:1002B000218780EA96E02AE1FC01278B80EA96E01C
:1002C00020E8FC012287CF91DF910895DF93CF933F
:1002D000CDB7DEB780911E20CF91DF910895DF93D7
:1002E000CF93CDB7DEB70E949F030E943801CF9114
:1002F000DF9108951F920F920FB60F920090380071
:100300000F92009039000F9200903B000F92112441
:10031000109238001092390010923B002F933F93B7
:100320004F935F936F937F938F939F93AF93BF93FD
:10033000EF93FF93DF93CF93CDB7DEB781E0809348
:100340001E2080EA96E021E0FC0124870E946F01D4
:10035000CF91DF91FF91EF91BF91AF919F918F91DD
:100360007F916F915F914F913F912F910F900092EC
:100370003B000F90009239000F90009238000F90D0
:100380000FBE0F901F901895DF93CF93CDB7DEB7B8
:1003900080EA90E024E0FC01228380EA90E020EAF9
:1003A00030E0F90122812260FC01228380EA90E0A2
:1003B00020EA30E0F90122812160FC012283789457
:1003C000CF91DF910895DF93CF93CDB7DEB70E9431
:1003D00047010E9421010E947E02CF91DF91089582
:1003E0000F931F93DF93CF93CDB7DEB72E97CDBF7B
:1003F000DEBF0E94C4010E94E30180E090E0AAE712
:10040000B4E489839A83AB83BC8369817A818B81CD
:100410009C8120E030E04AE753E40E945104DC0173
:10042000CB018D839E83AF83B88711E06D817E8180
:100430008F81988520E030E040E85FE30E94D003A0
:1004400088230CF010E0112329F081E090E08987E7
:100450009A8746C011E06D817E818F81988520E06A
:100460003FEF4FE757E40E944D0418160CF010E0E0
:10047000112361F169817A818B819C8120E030E0D8
:1004800040E251E40E945104DC01CB01BC01CD01EA
:100490000E94D403DC01CB0189879A8712C089E1CD
:1004A00090E08B879C878B859C858C01C801019788
:1004B000F1F78C010B871C8789859A8501978987BD
:1004C0009A8789859A85009751F717C06D817E813B
:1004D0008F8198850E94D403DC01CB0189879A879C
:1004E00089859A858D879E878D859E858C01C8011B
:1004F0000197F1F78C010D871E87FFCFDF93CF9314
:10050000CDB7DEB780E297E0209112203091132022
:10051000FC01218380EA96E020911420309115207F
:10052000FC01218380E09BE021E0FC01208380E04E
:100530009BE023EFFC01218380E09BE02FEF33E081
:10054000FC0126A337A381E060E072E00E94B002C4
:1005500080E060E072E00E94B002CF91DF910895E8
:10056000DF93CF93CDB7DEB72597CDBFDEBF8B83AB
:100570006C837D838B81882F90E08A5E9F4DFC0188
:100580008081882F90E09C01220F331F81E090E052
:10059000022E02C0880F991F0A94E2F7898389818D
:1005A000880F8A838C819D810097C1F480E297E057
:1005B00039812A81232BFC0126838B81882F90E0AF
:1005C0008A5E9F4DFC018081882F90E0880F991FE3
:1005D000885C944FFC011082118241C08C819D8106
:1005E00018161906ECF480E297E02A81FC012683B4
:1005F00080E297E02981FC0125838B81882F90E0A0
:100600008A5E9F4DFC018081882F90E0880F991FA2
:10061000885C944F2C813D81FC01208331831FC075
:1006200080E297E02981FC01268380E297E02A811D
:10063000FC0125838B81882F90E08A5E9F4DFC0111
:100640008081882F90E0880F991F885C944F2C81BF
:100650003D81309521953F4FFC01208331832596C4
:10066000CDBFDEBFCF91DF910895DF93CF930F927F
:100670000F92CDB7DEB719821A820EC089819A8196
:10068000880F991F885C944FFC0110821182898128
:100690009A81019689839A8380910E2090910F20F0
:1006A00029813A81281739074CF30F900F90CF9189
:1006B000DF910895DF93CF9300D00F92CDB7DEB7CF
:1006C0008C838C81882F90E08A5E9F4DFC01808115
:1006D000882F90E0880F991F885D944FFC018081DE
:1006E000918189839A838C81882F90E08A5E9F4DC7
:1006F000FC018081882F90E09C01220F331F81E054
:1007000090E0022E02C0880F991F0A94E2F78B83B3
:1007100080E297E0FC0190858B818923882339F45E
:1007200089819A81909581959F4F89839A83898148
:100730009A812496CDBFDEBFCF91DF910895DF93DC
:10074000CF93CDB7DEB781E060E070E00E94B002E9
:1007500080E060E070E00E94B002CF91DF910895E8
:10076000DF93CF93CDB7DEB70E946601009759F0B3
:1007700081E060E070E00E94B00280E060E070E044
:100780000E94B0020AC080E068EE73E00E94B002EE
:1007900081E068EE73E00E94B002CF91DF9108958E
:1007A0002FD008F481E0089557D088F09F5790F03B
:1007B000B92F9927B751A0F0D1F0660F771F881F86
:1007C000991F1AF0BA95C9F712C0B13081F05ED006
:1007D000B1E008955BC0672F782F8827B85F39F0A4
:1007E000B93FCCF3869577956795B395D9F73EF4E5
:1007F00090958095709561957F4F8F4F9F4F08958D
:10080000990F0008550FAA0BE0E8FEEF1616170621
:10081000E807F907C0F012161306E407F50798F089
:10082000621B730B840B950B39F40A2661F0232BA2
:10083000242B252B21F408950A2609F4A140A6951E
:100840008FEF811D811D089557FD9058440F551F4E
:1008500059F05F3F71F04795880F97FB991F61F042
:100860009F3F79F087950895121613061406551FB9
:10087000F2CF4695F1DF08C0161617061806991F25
:10088000F1CF86957105610508940895E894BB271A
:1008900066277727CB0197F90895B2DF08F48FEF29
:1008A00008950BD078C069D028F06ED018F0952349
:1008B00009F05AC05FC01124EACFC6DFA0F3959FAC
:1008C000D1F3950F50E0551F629FF001729FBB2737
:1008D000F00DB11D639FAA27F00DB11DAA1F649FE3
:1008E0006627B00DA11D661F829F2227B00DA11D96
:1008F000621F739FB00DA11D621F839FA00D611D1C
:10090000221F749F3327A00D611D231F849F600D3C
:10091000211D822F762F6A2F11249F5750408AF075
:10092000E1F088234AF0EE0FFF1FBB1F661F771F01
:10093000881F91505040A9F79E3F510570F014C098
:10094000A6CF5F3FECF3983EDCF3869577956795ED
:10095000B795F795E7959F5FC1F7FE2B880F911D1F
:100960009695879597F9089597F99F6780E870E0C5
:1009700060E008959FEF80EC089500240A94161615
:10098000170618060906089500240A94121613067D
:10099000140605060895092E0394000C11F488230B
:1009A00052F0BB0F40F4BF2B11F460FF04C06F5F27
:0C09B0007F4F8F4F9F4F0895F894FFCFAA
:1009BC00020004000004040000040400000404000D
:0E09CC000004FF000F000203010004000004FD
:00000001FF
